{
  "_format": "hh-sol-artifact-1",
  "contractName": "MultiMerkleStash",
  "sourceName": "contracts/MultiMerkleStash.sol",
  "abi": [
    {
      "anonymous": false,
      "inputs": [
        {
          "indexed": true,
          "internalType": "address",
          "name": "token",
          "type": "address"
        },
        {
          "indexed": false,
          "internalType": "uint256",
          "name": "index",
          "type": "uint256"
        },
        {
          "indexed": false,
          "internalType": "uint256",
          "name": "amount",
          "type": "uint256"
        },
        {
          "indexed": true,
          "internalType": "address",
          "name": "account",
          "type": "address"
        },
        {
          "indexed": true,
          "internalType": "uint256",
          "name": "update",
          "type": "uint256"
        }
      ],
      "name": "Claimed",
      "type": "event"
    },
    {
      "anonymous": false,
      "inputs": [
        {
          "indexed": true,
          "internalType": "address",
          "name": "token",
          "type": "address"
        },
        {
          "indexed": true,
          "internalType": "bytes32",
          "name": "merkleRoot",
          "type": "bytes32"
        },
        {
          "indexed": true,
          "internalType": "uint256",
          "name": "update",
          "type": "uint256"
        }
      ],
      "name": "MerkleRootUpdated",
      "type": "event"
    },
    {
      "anonymous": false,
      "inputs": [
        {
          "indexed": true,
          "internalType": "address",
          "name": "previousOwner",
          "type": "address"
        },
        {
          "indexed": true,
          "internalType": "address",
          "name": "newOwner",
          "type": "address"
        }
      ],
      "name": "OwnershipTransferred",
      "type": "event"
    },
    {
      "inputs": [
        {
          "internalType": "address",
          "name": "token",
          "type": "address"
        },
        {
          "internalType": "uint256",
          "name": "index",
          "type": "uint256"
        },
        {
          "internalType": "address",
          "name": "account",
          "type": "address"
        },
        {
          "internalType": "uint256",
          "name": "amount",
          "type": "uint256"
        },
        {
          "internalType": "bytes32[]",
          "name": "merkleProof",
          "type": "bytes32[]"
        }
      ],
      "name": "claim",
      "outputs": [],
      "stateMutability": "nonpayable",
      "type": "function"
    },
    {
      "inputs": [
        {
          "internalType": "address",
          "name": "account",
          "type": "address"
        },
        {
          "components": [
            {
              "internalType": "address",
              "name": "token",
              "type": "address"
            },
            {
              "internalType": "uint256",
              "name": "index",
              "type": "uint256"
            },
            {
              "internalType": "uint256",
              "name": "amount",
              "type": "uint256"
            },
            {
              "internalType": "bytes32[]",
              "name": "merkleProof",
              "type": "bytes32[]"
            }
          ],
          "internalType": "struct MultiMerkleStash.claimParam[]",
          "name": "claims",
          "type": "tuple[]"
        }
      ],
      "name": "claimMulti",
      "outputs": [],
      "stateMutability": "nonpayable",
      "type": "function"
    },
    {
      "inputs": [
        {
          "internalType": "address",
          "name": "token",
          "type": "address"
        },
        {
          "internalType": "uint256",
          "name": "index",
          "type": "uint256"
        }
      ],
      "name": "isClaimed",
      "outputs": [
        {
          "internalType": "bool",
          "name": "",
          "type": "bool"
        }
      ],
      "stateMutability": "view",
      "type": "function"
    },
    {
      "inputs": [
        {
          "internalType": "address",
          "name": "",
          "type": "address"
        }
      ],
      "name": "merkleRoot",
      "outputs": [
        {
          "internalType": "bytes32",
          "name": "",
          "type": "bytes32"
        }
      ],
      "stateMutability": "view",
      "type": "function"
    },
    {
      "inputs": [],
      "name": "owner",
      "outputs": [
        {
          "internalType": "address",
          "name": "",
          "type": "address"
        }
      ],
      "stateMutability": "view",
      "type": "function"
    },
    {
      "inputs": [],
      "name": "renounceOwnership",
      "outputs": [],
      "stateMutability": "nonpayable",
      "type": "function"
    },
    {
      "inputs": [
        {
          "internalType": "address",
          "name": "",
          "type": "address"
        }
      ],
      "name": "totalClaimed",
      "outputs": [
        {
          "internalType": "uint256",
          "name": "",
          "type": "uint256"
        }
      ],
      "stateMutability": "view",
      "type": "function"
    },
    {
      "inputs": [
        {
          "internalType": "address",
          "name": "newOwner",
          "type": "address"
        }
      ],
      "name": "transferOwnership",
      "outputs": [],
      "stateMutability": "nonpayable",
      "type": "function"
    },
    {
      "inputs": [
        {
          "internalType": "address",
          "name": "",
          "type": "address"
        }
      ],
      "name": "update",
      "outputs": [
        {
          "internalType": "uint256",
          "name": "",
          "type": "uint256"
        }
      ],
      "stateMutability": "view",
      "type": "function"
    },
    {
      "inputs": [
        {
          "internalType": "address",
          "name": "token",
          "type": "address"
        },
        {
          "internalType": "bytes32",
          "name": "_merkleRoot",
          "type": "bytes32"
        },
        {
          "internalType": "uint256",
          "name": "version",
          "type": "uint256"
        }
      ],
      "name": "updateMerkleRoot",
      "outputs": [],
      "stateMutability": "nonpayable",
      "type": "function"
    }
  ],
  "bytecode": "0x608060405234801561001057600080fd5b5061002d61002261003960201b60201c565b61004160201b60201c565b60018081905550610105565b600033905090565b60008060009054906101000a900473ffffffffffffffffffffffffffffffffffffffff169050816000806101000a81548173ffffffffffffffffffffffffffffffffffffffff021916908373ffffffffffffffffffffffffffffffffffffffff1602179055508173ffffffffffffffffffffffffffffffffffffffff168173ffffffffffffffffffffffffffffffffffffffff167f8be0079c531659141344cd1fd0a4f28419497f9722a3daafe3b4186f6b6457e060405160405180910390a35050565b611f36806101146000396000f3fe608060405234801561001057600080fd5b506004361061009e5760003560e01c80638da5cb5b116100665780638da5cb5b14610145578063c0f4bcfb14610163578063e21115861461017f578063ef5d9ae8146101af578063f2fde38b146101df5761009e565b806312d18ed6146100a35780631c1b8772146100bf57806320ce64de146100ef578063562beba81461010b578063715018a61461013b575b600080fd5b6100bd60048036038101906100b89190611264565b6101fb565b005b6100d960048036038101906100d491906112fe565b610551565b6040516100e6919061133a565b60405180910390f35b610109600480360381019061010491906113ab565b610569565b005b6101256004803603810190610120919061140b565b61069d565b6040516101329190611466565b60405180910390f35b610143610781565b005b61014d610809565b60405161015a9190611490565b60405180910390f35b61017d600480360381019061017891906114e1565b610832565b005b610199600480360381019061019491906112fe565b610a53565b6040516101a69190611543565b60405180910390f35b6101c960048036038101906101c491906112fe565b610a6b565b6040516101d6919061133a565b60405180910390f35b6101f960048036038101906101f491906112fe565b610a83565b005b600260015403610240576040517f08c379a0000000000000000000000000000000000000000000000000000000008152600401610237906115bb565b60405180910390fd5b60026001819055506000801b600260008873ffffffffffffffffffffffffffffffffffffffff1673ffffffffffffffffffffffffffffffffffffffff16815260200190815260200160002054036102cc576040517f08c379a00000000000000000000000000000000000000000000000000000000081526004016102c390611627565b60405180910390fd5b6102d6868661069d565b15610316576040517f08c379a000000000000000000000000000000000000000000000000000000000815260040161030d90611693565b60405180910390fd5b600085858560405160200161032d9392919061171c565b6040516020818303038152906040528051906020012090506103d0838380806020026020016040519081016040528093929190818152602001838360200280828437600081840152601f19601f82011690508083019250505050505050600260008a73ffffffffffffffffffffffffffffffffffffffff1673ffffffffffffffffffffffffffffffffffffffff1681526020019081526020016000205483610b7a565b61040f576040517f08c379a0000000000000000000000000000000000000000000000000000000008152600401610406906117a5565b60405180910390fd5b6104198787610b91565b83600460008973ffffffffffffffffffffffffffffffffffffffff1673ffffffffffffffffffffffffffffffffffffffff168152602001908152602001600020600082825461046891906117f4565b9250508190555061049a85858973ffffffffffffffffffffffffffffffffffffffff16610d069092919063ffffffff16565b600360008873ffffffffffffffffffffffffffffffffffffffff1673ffffffffffffffffffffffffffffffffffffffff168152602001908152602001600020548573ffffffffffffffffffffffffffffffffffffffff168873ffffffffffffffffffffffffffffffffffffffff167f4766921f5c59646d22d7d266a29164c8e9623684d8dfdbd931731dfdca0252388988604051610539929190611828565b60405180910390a45060018081905550505050505050565b60036020528060005260406000206000915090505481565b60148282905011156105b0576040517f08c379a00000000000000000000000000000000000000000000000000000000081526004016105a7906118c3565b60405180910390fd5b60005b82829050811015610697576106848383838181106105d4576105d36118e3565b5b90506020028101906105e69190611921565b60000160208101906105f891906112fe565b84848481811061060b5761060a6118e3565b5b905060200281019061061d9190611921565b6020013586868686818110610635576106346118e3565b5b90506020028101906106479190611921565b6040013587878781811061065e5761065d6118e3565b5b90506020028101906106709190611921565b806060019061067f9190611949565b6101fb565b808061068f906119ac565b9150506105b3565b50505050565b600080610100836106ae9190611a23565b90506000610100846106c09190611a54565b90506000600560008773ffffffffffffffffffffffffffffffffffffffff1673ffffffffffffffffffffffffffffffffffffffff1681526020019081526020016000206000600360008973ffffffffffffffffffffffffffffffffffffffff1673ffffffffffffffffffffffffffffffffffffffff16815260200190815260200160002054815260200190815260200160002060008481526020019081526020016000205490506000826001901b9050808183161494505050505092915050565b610789610d8c565b73ffffffffffffffffffffffffffffffffffffffff166107a7610809565b73ffffffffffffffffffffffffffffffffffffffff16146107fd576040517f08c379a00000000000000000000000000000000000000000000000000000000081526004016107f490611ad1565b60405180910390fd5b6108076000610d94565b565b60008060009054906101000a900473ffffffffffffffffffffffffffffffffffffffff16905090565b61083a610d8c565b73ffffffffffffffffffffffffffffffffffffffff16610858610809565b73ffffffffffffffffffffffffffffffffffffffff16146108ae576040517f08c379a00000000000000000000000000000000000000000000000000000000081526004016108a590611ad1565b60405180910390fd5b6001600360008573ffffffffffffffffffffffffffffffffffffffff1673ffffffffffffffffffffffffffffffffffffffff16815260200190815260200160002060008282546108fe91906117f4565b9250508190555080600360008573ffffffffffffffffffffffffffffffffffffffff1673ffffffffffffffffffffffffffffffffffffffff1681526020019081526020016000205414610986576040517f08c379a000000000000000000000000000000000000000000000000000000000815260040161097d90611b3d565b60405180910390fd5b81600260008573ffffffffffffffffffffffffffffffffffffffff1673ffffffffffffffffffffffffffffffffffffffff16815260200190815260200160002081905550600360008473ffffffffffffffffffffffffffffffffffffffff1673ffffffffffffffffffffffffffffffffffffffff16815260200190815260200160002054828473ffffffffffffffffffffffffffffffffffffffff167fbdc375de8a677af383c6ee6f8b2027dbd231c3c47453ce81d1ce8f1bcdb722dc60405160405180910390a4505050565b60026020528060005260406000206000915090505481565b60046020528060005260406000206000915090505481565b610a8b610d8c565b73ffffffffffffffffffffffffffffffffffffffff16610aa9610809565b73ffffffffffffffffffffffffffffffffffffffff1614610aff576040517f08c379a0000000000000000000000000000000000000000000000000000000008152600401610af690611ad1565b60405180910390fd5b600073ffffffffffffffffffffffffffffffffffffffff168173ffffffffffffffffffffffffffffffffffffffff1603610b6e576040517f08c379a0000000000000000000000000000000000000000000000000000000008152600401610b6590611bcf565b60405180910390fd5b610b7781610d94565b50565b600082610b878584610e58565b1490509392505050565b600061010082610ba19190611a23565b9050600061010083610bb39190611a54565b9050806001901b600560008673ffffffffffffffffffffffffffffffffffffffff1673ffffffffffffffffffffffffffffffffffffffff1681526020019081526020016000206000600360008873ffffffffffffffffffffffffffffffffffffffff1673ffffffffffffffffffffffffffffffffffffffff16815260200190815260200160002054815260200190815260200160002060008481526020019081526020016000205417600560008673ffffffffffffffffffffffffffffffffffffffff1673ffffffffffffffffffffffffffffffffffffffff1681526020019081526020016000206000600360008873ffffffffffffffffffffffffffffffffffffffff1673ffffffffffffffffffffffffffffffffffffffff16815260200190815260200160002054815260200190815260200160002060008481526020019081526020016000208190555050505050565b610d878363a9059cbb60e01b8484604051602401610d25929190611bef565b604051602081830303815290604052907bffffffffffffffffffffffffffffffffffffffffffffffffffffffff19166020820180517bffffffffffffffffffffffffffffffffffffffffffffffffffffffff8381831617835250505050610ecd565b505050565b600033905090565b60008060009054906101000a900473ffffffffffffffffffffffffffffffffffffffff169050816000806101000a81548173ffffffffffffffffffffffffffffffffffffffff021916908373ffffffffffffffffffffffffffffffffffffffff1602179055508173ffffffffffffffffffffffffffffffffffffffff168173ffffffffffffffffffffffffffffffffffffffff167f8be0079c531659141344cd1fd0a4f28419497f9722a3daafe3b4186f6b6457e060405160405180910390a35050565b60008082905060005b8451811015610ec2576000858281518110610e7f57610e7e6118e3565b5b60200260200101519050808311610ea157610e9a8382610f94565b9250610eae565b610eab8184610f94565b92505b508080610eba906119ac565b915050610e61565b508091505092915050565b6000610f2f826040518060400160405280602081526020017f5361666545524332303a206c6f772d6c6576656c2063616c6c206661696c65648152508573ffffffffffffffffffffffffffffffffffffffff16610fab9092919063ffffffff16565b9050600081511115610f8f5780806020019051810190610f4f9190611c44565b610f8e576040517f08c379a0000000000000000000000000000000000000000000000000000000008152600401610f8590611ce3565b60405180910390fd5b5b505050565b600082600052816020526040600020905092915050565b6060610fba8484600085610fc3565b90509392505050565b606082471015611008576040517f08c379a0000000000000000000000000000000000000000000000000000000008152600401610fff90611d75565b60405180910390fd5b611011856110d7565b611050576040517f08c379a000000000000000000000000000000000000000000000000000000000815260040161104790611de1565b60405180910390fd5b6000808673ffffffffffffffffffffffffffffffffffffffff1685876040516110799190611e72565b60006040518083038185875af1925050503d80600081146110b6576040519150601f19603f3d011682016040523d82523d6000602084013e6110bb565b606091505b50915091506110cb8282866110fa565b92505050949350505050565b6000808273ffffffffffffffffffffffffffffffffffffffff163b119050919050565b6060831561110a5782905061115a565b60008351111561111d5782518084602001fd5b816040517f08c379a00000000000000000000000000000000000000000000000000000000081526004016111519190611ede565b60405180910390fd5b9392505050565b600080fd5b600080fd5b600073ffffffffffffffffffffffffffffffffffffffff82169050919050565b60006111968261116b565b9050919050565b6111a68161118b565b81146111b157600080fd5b50565b6000813590506111c38161119d565b92915050565b6000819050919050565b6111dc816111c9565b81146111e757600080fd5b50565b6000813590506111f9816111d3565b92915050565b600080fd5b600080fd5b600080fd5b60008083601f840112611224576112236111ff565b5b8235905067ffffffffffffffff81111561124157611240611204565b5b60208301915083602082028301111561125d5761125c611209565b5b9250929050565b60008060008060008060a0878903121561128157611280611161565b5b600061128f89828a016111b4565b96505060206112a089828a016111ea565b95505060406112b189828a016111b4565b94505060606112c289828a016111ea565b935050608087013567ffffffffffffffff8111156112e3576112e2611166565b5b6112ef89828a0161120e565b92509250509295509295509295565b60006020828403121561131457611313611161565b5b6000611322848285016111b4565b91505092915050565b611334816111c9565b82525050565b600060208201905061134f600083018461132b565b92915050565b60008083601f84011261136b5761136a6111ff565b5b8235905067ffffffffffffffff81111561138857611387611204565b5b6020830191508360208202830111156113a4576113a3611209565b5b9250929050565b6000806000604084860312156113c4576113c3611161565b5b60006113d2868287016111b4565b935050602084013567ffffffffffffffff8111156113f3576113f2611166565b5b6113ff86828701611355565b92509250509250925092565b6000806040838503121561142257611421611161565b5b6000611430858286016111b4565b9250506020611441858286016111ea565b9150509250929050565b60008115159050919050565b6114608161144b565b82525050565b600060208201905061147b6000830184611457565b92915050565b61148a8161118b565b82525050565b60006020820190506114a56000830184611481565b92915050565b6000819050919050565b6114be816114ab565b81146114c957600080fd5b50565b6000813590506114db816114b5565b92915050565b6000806000606084860312156114fa576114f9611161565b5b6000611508868287016111b4565b9350506020611519868287016114cc565b925050604061152a868287016111ea565b9150509250925092565b61153d816114ab565b82525050565b60006020820190506115586000830184611534565b92915050565b600082825260208201905092915050565b7f5265656e7472616e637947756172643a207265656e7472616e742063616c6c00600082015250565b60006115a5601f8361155e565b91506115b08261156f565b602082019050919050565b600060208201905081810360008301526115d481611598565b9050919050565b7f66726f7a656e0000000000000000000000000000000000000000000000000000600082015250565b600061161160068361155e565b915061161c826115db565b602082019050919050565b6000602082019050818103600083015261164081611604565b9050919050565b7f44726f7020616c726561647920636c61696d65642e0000000000000000000000600082015250565b600061167d60158361155e565b915061168882611647565b602082019050919050565b600060208201905081810360008301526116ac81611670565b9050919050565b6000819050919050565b6116ce6116c9826111c9565b6116b3565b82525050565b60008160601b9050919050565b60006116ec826116d4565b9050919050565b60006116fe826116e1565b9050919050565b6117166117118261118b565b6116f3565b82525050565b600061172882866116bd565b6020820191506117388285611705565b60148201915061174882846116bd565b602082019150819050949350505050565b7f496e76616c69642070726f6f662e000000000000000000000000000000000000600082015250565b600061178f600e8361155e565b915061179a82611759565b602082019050919050565b600060208201905081810360008301526117be81611782565b9050919050565b7f4e487b7100000000000000000000000000000000000000000000000000000000600052601160045260246000fd5b60006117ff826111c9565b915061180a836111c9565b9250828201905080821115611822576118216117c5565b5b92915050565b600060408201905061183d600083018561132b565b61184a602083018461132b565b9392505050565b7f43616e277420636c61696d206d6f7265207468616e20323020746f6b656e732060008201527f6174206f6e636500000000000000000000000000000000000000000000000000602082015250565b60006118ad60278361155e565b91506118b882611851565b604082019050919050565b600060208201905081810360008301526118dc816118a0565b9050919050565b7f4e487b7100000000000000000000000000000000000000000000000000000000600052603260045260246000fd5b600080fd5b600080fd5b600080fd5b60008235600160800383360303811261193d5761193c611912565b5b80830191505092915050565b6000808335600160200384360303811261196657611965611912565b5b80840192508235915067ffffffffffffffff82111561198857611987611917565b5b6020830192506020820236038313156119a4576119a361191c565b5b509250929050565b60006119b7826111c9565b91507fffffffffffffffffffffffffffffffffffffffffffffffffffffffffffffffff82036119e9576119e86117c5565b5b600182019050919050565b7f4e487b7100000000000000000000000000000000000000000000000000000000600052601260045260246000fd5b6000611a2e826111c9565b9150611a39836111c9565b925082611a4957611a486119f4565b5b828204905092915050565b6000611a5f826111c9565b9150611a6a836111c9565b925082611a7a57611a796119f4565b5b828206905092915050565b7f4f776e61626c653a2063616c6c6572206973206e6f7420746865206f776e6572600082015250565b6000611abb60208361155e565b9150611ac682611a85565b602082019050919050565b60006020820190508181036000830152611aea81611aae565b9050919050565b7f76657273696f6e206d69736d6174636800000000000000000000000000000000600082015250565b6000611b2760108361155e565b9150611b3282611af1565b602082019050919050565b60006020820190508181036000830152611b5681611b1a565b9050919050565b7f4f776e61626c653a206e6577206f776e657220697320746865207a65726f206160008201527f6464726573730000000000000000000000000000000000000000000000000000602082015250565b6000611bb960268361155e565b9150611bc482611b5d565b604082019050919050565b60006020820190508181036000830152611be881611bac565b9050919050565b6000604082019050611c046000830185611481565b611c11602083018461132b565b9392505050565b611c218161144b565b8114611c2c57600080fd5b50565b600081519050611c3e81611c18565b92915050565b600060208284031215611c5a57611c59611161565b5b6000611c6884828501611c2f565b91505092915050565b7f5361666545524332303a204552433230206f7065726174696f6e20646964206e60008201527f6f74207375636365656400000000000000000000000000000000000000000000602082015250565b6000611ccd602a8361155e565b9150611cd882611c71565b604082019050919050565b60006020820190508181036000830152611cfc81611cc0565b9050919050565b7f416464726573733a20696e73756666696369656e742062616c616e636520666f60008201527f722063616c6c0000000000000000000000000000000000000000000000000000602082015250565b6000611d5f60268361155e565b9150611d6a82611d03565b604082019050919050565b60006020820190508181036000830152611d8e81611d52565b9050919050565b7f416464726573733a2063616c6c20746f206e6f6e2d636f6e7472616374000000600082015250565b6000611dcb601d8361155e565b9150611dd682611d95565b602082019050919050565b60006020820190508181036000830152611dfa81611dbe565b9050919050565b600081519050919050565b600081905092915050565b60005b83811015611e35578082015181840152602081019050611e1a565b60008484015250505050565b6000611e4c82611e01565b611e568185611e0c565b9350611e66818560208601611e17565b80840191505092915050565b6000611e7e8284611e41565b915081905092915050565b600081519050919050565b6000601f19601f8301169050919050565b6000611eb082611e89565b611eba818561155e565b9350611eca818560208601611e17565b611ed381611e94565b840191505092915050565b60006020820190508181036000830152611ef88184611ea5565b90509291505056fea2646970667358221220444ae153f0c5f1914cde927f5733b981b2e6181889f7a7f72bd8087b2ab14d8564736f6c63430008120033",
  "linkReferences": {},
  "deployedLinkReferences": {}
}