{
  "_format": "hh-sol-artifact-1",
  "contractName": "QuickSnap",
  "sourceName": "contracts/QuickSnap.sol",
  "abi": [
    {
      "inputs": [
        {
          "internalType": "uint256",
          "name": "_feePercentage",
          "type": "uint256"
        },
        {
          "internalType": "address",
          "name": "_feeAddress",
          "type": "address"
        },
        {
          "internalType": "address",
          "name": "_distributionAddress",
          "type": "address"
        }
      ],
      "stateMutability": "nonpayable",
      "type": "constructor"
    },
    {
      "anonymous": false,
      "inputs": [
        {
          "indexed": false,
          "internalType": "address",
          "name": "oldAddress",
          "type": "address"
        },
        {
          "indexed": false,
          "internalType": "address",
          "name": "newAddress",
          "type": "address"
        }
      ],
      "name": "DistributionAddressUpdated",
      "type": "event"
    },
    {
      "anonymous": false,
      "inputs": [
        {
          "indexed": false,
          "internalType": "address",
          "name": "oldAddress",
          "type": "address"
        },
        {
          "indexed": false,
          "internalType": "address",
          "name": "newAddress",
          "type": "address"
        }
      ],
      "name": "FeeAddressUpdated",
      "type": "event"
    },
    {
      "anonymous": false,
      "inputs": [
        {
          "indexed": false,
          "internalType": "uint256",
          "name": "oldFee",
          "type": "uint256"
        },
        {
          "indexed": false,
          "internalType": "uint256",
          "name": "newFee",
          "type": "uint256"
        }
      ],
      "name": "FeePercentageUpdated",
      "type": "event"
    },
    {
      "anonymous": false,
      "inputs": [
        {
          "indexed": true,
          "internalType": "address",
          "name": "previousOwner",
          "type": "address"
        },
        {
          "indexed": true,
          "internalType": "address",
          "name": "newOwner",
          "type": "address"
        }
      ],
      "name": "OwnershipTransferred",
      "type": "event"
    },
    {
      "anonymous": false,
      "inputs": [
        {
          "indexed": false,
          "internalType": "uint256",
          "name": "time",
          "type": "uint256"
        },
        {
          "indexed": true,
          "internalType": "address",
          "name": "rewarder",
          "type": "address"
        },
        {
          "indexed": false,
          "internalType": "string",
          "name": "proposal",
          "type": "string"
        },
        {
          "indexed": false,
          "internalType": "uint256",
          "name": "option",
          "type": "uint256"
        },
        {
          "indexed": false,
          "internalType": "address",
          "name": "reward_token",
          "type": "address"
        },
        {
          "indexed": false,
          "internalType": "uint256",
          "name": "amount",
          "type": "uint256"
        },
        {
          "indexed": false,
          "internalType": "uint256",
          "name": "startTime",
          "type": "uint256"
        },
        {
          "indexed": false,
          "internalType": "uint256",
          "name": "endTime",
          "type": "uint256"
        }
      ],
      "name": "RewardAdded",
      "type": "event"
    },
    {
      "inputs": [],
      "name": "MAX_FEE",
      "outputs": [
        {
          "internalType": "uint256",
          "name": "",
          "type": "uint256"
        }
      ],
      "stateMutability": "view",
      "type": "function"
    },
    {
      "inputs": [
        {
          "internalType": "string",
          "name": "proposal",
          "type": "string"
        },
        {
          "internalType": "uint256",
          "name": "option",
          "type": "uint256"
        },
        {
          "internalType": "address",
          "name": "reward_token",
          "type": "address"
        },
        {
          "internalType": "uint256",
          "name": "amount",
          "type": "uint256"
        },
        {
          "internalType": "uint256",
          "name": "startTime",
          "type": "uint256"
        },
        {
          "internalType": "uint256",
          "name": "endTime",
          "type": "uint256"
        }
      ],
      "name": "add_reward_amount",
      "outputs": [],
      "stateMutability": "nonpayable",
      "type": "function"
    },
    {
      "inputs": [],
      "name": "distributionAddress",
      "outputs": [
        {
          "internalType": "address",
          "name": "",
          "type": "address"
        }
      ],
      "stateMutability": "view",
      "type": "function"
    },
    {
      "inputs": [],
      "name": "feeAddress",
      "outputs": [
        {
          "internalType": "address",
          "name": "",
          "type": "address"
        }
      ],
      "stateMutability": "view",
      "type": "function"
    },
    {
      "inputs": [],
      "name": "feePercentage",
      "outputs": [
        {
          "internalType": "uint256",
          "name": "",
          "type": "uint256"
        }
      ],
      "stateMutability": "view",
      "type": "function"
    },
    {
      "inputs": [],
      "name": "owner",
      "outputs": [
        {
          "internalType": "address",
          "name": "",
          "type": "address"
        }
      ],
      "stateMutability": "view",
      "type": "function"
    },
    {
      "inputs": [],
      "name": "renounceOwnership",
      "outputs": [],
      "stateMutability": "nonpayable",
      "type": "function"
    },
    {
      "inputs": [
        {
          "internalType": "address",
          "name": "_distributionAddress",
          "type": "address"
        }
      ],
      "name": "set_distribution_address",
      "outputs": [],
      "stateMutability": "nonpayable",
      "type": "function"
    },
    {
      "inputs": [
        {
          "internalType": "address",
          "name": "_feeAddress",
          "type": "address"
        }
      ],
      "name": "set_fee_address",
      "outputs": [],
      "stateMutability": "nonpayable",
      "type": "function"
    },
    {
      "inputs": [
        {
          "internalType": "uint256",
          "name": "_feePercentage",
          "type": "uint256"
        }
      ],
      "name": "set_fee_percentage",
      "outputs": [],
      "stateMutability": "nonpayable",
      "type": "function"
    },
    {
      "inputs": [
        {
          "internalType": "address",
          "name": "newOwner",
          "type": "address"
        }
      ],
      "name": "transferOwnership",
      "outputs": [],
      "stateMutability": "nonpayable",
      "type": "function"
    }
  ],
  "bytecode": "0x60806040523480156200001157600080fd5b506040516200205c3803806200205c8339818101604052810190620000379190620003d2565b620000576200004b6200026160201b60201c565b6200026960201b60201c565b6001808190555060008311620000a4576040517f08c379a00000000000000000000000000000000000000000000000000000000081526004016200009b906200048f565b60405180910390fd5b600f831115620000eb576040517f08c379a0000000000000000000000000000000000000000000000000000000008152600401620000e29062000501565b60405180910390fd5b600073ffffffffffffffffffffffffffffffffffffffff168273ffffffffffffffffffffffffffffffffffffffff16036200015d576040517f08c379a0000000000000000000000000000000000000000000000000000000008152600401620001549062000573565b60405180910390fd5b600073ffffffffffffffffffffffffffffffffffffffff168173ffffffffffffffffffffffffffffffffffffffff1603620001cf576040517f08c379a0000000000000000000000000000000000000000000000000000000008152600401620001c690620005e5565b60405180910390fd5b8260028190555081600360006101000a81548173ffffffffffffffffffffffffffffffffffffffff021916908373ffffffffffffffffffffffffffffffffffffffff16021790555080600460006101000a81548173ffffffffffffffffffffffffffffffffffffffff021916908373ffffffffffffffffffffffffffffffffffffffff16021790555050505062000607565b600033905090565b60008060009054906101000a900473ffffffffffffffffffffffffffffffffffffffff169050816000806101000a81548173ffffffffffffffffffffffffffffffffffffffff021916908373ffffffffffffffffffffffffffffffffffffffff1602179055508173ffffffffffffffffffffffffffffffffffffffff168173ffffffffffffffffffffffffffffffffffffffff167f8be0079c531659141344cd1fd0a4f28419497f9722a3daafe3b4186f6b6457e060405160405180910390a35050565b600080fd5b6000819050919050565b620003478162000332565b81146200035357600080fd5b50565b60008151905062000367816200033c565b92915050565b600073ffffffffffffffffffffffffffffffffffffffff82169050919050565b60006200039a826200036d565b9050919050565b620003ac816200038d565b8114620003b857600080fd5b50565b600081519050620003cc81620003a1565b92915050565b600080600060608486031215620003ee57620003ed6200032d565b5b6000620003fe8682870162000356565b93505060206200041186828701620003bb565b92505060406200042486828701620003bb565b9150509250925092565b600082825260208201905092915050565b7f4665652063616e6e6f7420626520300000000000000000000000000000000000600082015250565b600062000477600f836200042e565b915062000484826200043f565b602082019050919050565b60006020820190508181036000830152620004aa8162000468565b9050919050565b7f46656520746f6f20686967680000000000000000000000000000000000000000600082015250565b6000620004e9600c836200042e565b9150620004f682620004b1565b602082019050919050565b600060208201905081810360008301526200051c81620004da565b9050919050565b7f77726f6e67206665652061646472657373000000000000000000000000000000600082015250565b60006200055b6011836200042e565b9150620005688262000523565b602082019050919050565b600060208201905081810360008301526200058e816200054c565b9050919050565b7f77726f6e6720646973747269627574696f6e2061646472657373000000000000600082015250565b6000620005cd601a836200042e565b9150620005da8262000595565b602082019050919050565b600060208201905081810360008301526200060081620005be565b9050919050565b611a4580620006176000396000f3fe608060405234801561001057600080fd5b50600436106100a95760003560e01c8063715018a611610071578063715018a61461013e5780638da5cb5b14610148578063919cd38314610166578063a001ecdd14610182578063bc063e1a146101a0578063f2fde38b146101be576100a9565b80631703beb5146100ae5780632aed6a01146100ca57806337fb7e21146100e6578063412753581461010457806370919e4c14610122575b600080fd5b6100c860048036038101906100c3919061103a565b6101da565b005b6100e460048036038101906100df91906110e3565b6103fc565b005b6100ee610586565b6040516100fb919061111f565b60405180910390f35b61010c6105ac565b604051610119919061111f565b60405180910390f35b61013c6004803603810190610137919061113a565b6105d2565b005b61014661071a565b005b6101506107a2565b60405161015d919061111f565b60405180910390f35b610180600480360381019061017b91906110e3565b6107cb565b005b61018a610955565b6040516101979190611176565b60405180910390f35b6101a861095b565b6040516101b59190611176565b60405180910390f35b6101d860048036038101906101d391906110e3565b610960565b005b60026001540361021f576040517f08c379a0000000000000000000000000000000000000000000000000000000008152600401610216906111ee565b60405180910390fd5b6002600181905550600073ffffffffffffffffffffffffffffffffffffffff168473ffffffffffffffffffffffffffffffffffffffff1603610296576040517f08c379a000000000000000000000000000000000000000000000000000000000815260040161028d9061125a565b60405180910390fd5b600083116102d9576040517f08c379a00000000000000000000000000000000000000000000000000000000081526004016102d0906112c6565b60405180910390fd5b60006102e484610a57565b905080846102f29190611315565b935061034333600360009054906101000a900473ffffffffffffffffffffffffffffffffffffffff16838873ffffffffffffffffffffffffffffffffffffffff16610a7a909392919063ffffffff16565b61039233600460009054906101000a900473ffffffffffffffffffffffffffffffffffffffff16868873ffffffffffffffffffffffffffffffffffffffff16610a7a909392919063ffffffff16565b3373ffffffffffffffffffffffffffffffffffffffff167f6ca86beb3de703d011c606a51d5749af6209e4962b217ff395148f2b9e5c449e428989898989896040516103e497969594939291906113b7565b60405180910390a25060018081905550505050505050565b610404610b03565b73ffffffffffffffffffffffffffffffffffffffff166104226107a2565b73ffffffffffffffffffffffffffffffffffffffff1614610478576040517f08c379a000000000000000000000000000000000000000000000000000000000815260040161046f90611479565b60405180910390fd5b600073ffffffffffffffffffffffffffffffffffffffff168173ffffffffffffffffffffffffffffffffffffffff16036104e7576040517f08c379a00000000000000000000000000000000000000000000000000000000081526004016104de906114e5565b60405180910390fd5b7f87bc4c971cc95b28b88dfc63a854455265ef6451444531932dff20a89c5066f2600460009054906101000a900473ffffffffffffffffffffffffffffffffffffffff168260405161053a929190611505565b60405180910390a180600460006101000a81548173ffffffffffffffffffffffffffffffffffffffff021916908373ffffffffffffffffffffffffffffffffffffffff16021790555050565b600460009054906101000a900473ffffffffffffffffffffffffffffffffffffffff1681565b600360009054906101000a900473ffffffffffffffffffffffffffffffffffffffff1681565b6105da610b03565b73ffffffffffffffffffffffffffffffffffffffff166105f86107a2565b73ffffffffffffffffffffffffffffffffffffffff161461064e576040517f08c379a000000000000000000000000000000000000000000000000000000000815260040161064590611479565b60405180910390fd5b60008111610691576040517f08c379a00000000000000000000000000000000000000000000000000000000081526004016106889061157a565b60405180910390fd5b600f8111156106d5576040517f08c379a00000000000000000000000000000000000000000000000000000000081526004016106cc906115e6565b60405180910390fd5b7fb27c12a91635e11c22bffa7bd8e0a8735da52b94aaefd7f249776c7590ba789460025482604051610708929190611606565b60405180910390a18060028190555050565b610722610b03565b73ffffffffffffffffffffffffffffffffffffffff166107406107a2565b73ffffffffffffffffffffffffffffffffffffffff1614610796576040517f08c379a000000000000000000000000000000000000000000000000000000000815260040161078d90611479565b60405180910390fd5b6107a06000610b0b565b565b60008060009054906101000a900473ffffffffffffffffffffffffffffffffffffffff16905090565b6107d3610b03565b73ffffffffffffffffffffffffffffffffffffffff166107f16107a2565b73ffffffffffffffffffffffffffffffffffffffff1614610847576040517f08c379a000000000000000000000000000000000000000000000000000000000815260040161083e90611479565b60405180910390fd5b600073ffffffffffffffffffffffffffffffffffffffff168173ffffffffffffffffffffffffffffffffffffffff16036108b6576040517f08c379a00000000000000000000000000000000000000000000000000000000081526004016108ad906114e5565b60405180910390fd5b7f11f35a22548bcd4c3788ab4a7e4fba427a2014f02e5d5e2da9af62212c03183f600360009054906101000a900473ffffffffffffffffffffffffffffffffffffffff1682604051610909929190611505565b60405180910390a180600360006101000a81548173ffffffffffffffffffffffffffffffffffffffff021916908373ffffffffffffffffffffffffffffffffffffffff16021790555050565b60025481565b600f81565b610968610b03565b73ffffffffffffffffffffffffffffffffffffffff166109866107a2565b73ffffffffffffffffffffffffffffffffffffffff16146109dc576040517f08c379a00000000000000000000000000000000000000000000000000000000081526004016109d390611479565b60405180910390fd5b600073ffffffffffffffffffffffffffffffffffffffff168173ffffffffffffffffffffffffffffffffffffffff1603610a4b576040517f08c379a0000000000000000000000000000000000000000000000000000000008152600401610a42906116a1565b60405180910390fd5b610a5481610b0b565b50565b6000606460025483610a6991906116c1565b610a739190611732565b9050919050565b610afd846323b872dd60e01b858585604051602401610a9b93929190611763565b604051602081830303815290604052907bffffffffffffffffffffffffffffffffffffffffffffffffffffffff19166020820180517bffffffffffffffffffffffffffffffffffffffffffffffffffffffff8381831617835250505050610bcf565b50505050565b600033905090565b60008060009054906101000a900473ffffffffffffffffffffffffffffffffffffffff169050816000806101000a81548173ffffffffffffffffffffffffffffffffffffffff021916908373ffffffffffffffffffffffffffffffffffffffff1602179055508173ffffffffffffffffffffffffffffffffffffffff168173ffffffffffffffffffffffffffffffffffffffff167f8be0079c531659141344cd1fd0a4f28419497f9722a3daafe3b4186f6b6457e060405160405180910390a35050565b6000610c31826040518060400160405280602081526020017f5361666545524332303a206c6f772d6c6576656c2063616c6c206661696c65648152508573ffffffffffffffffffffffffffffffffffffffff16610c969092919063ffffffff16565b9050600081511115610c915780806020019051810190610c5191906117d2565b610c90576040517f08c379a0000000000000000000000000000000000000000000000000000000008152600401610c8790611871565b60405180910390fd5b5b505050565b6060610ca58484600085610cae565b90509392505050565b606082471015610cf3576040517f08c379a0000000000000000000000000000000000000000000000000000000008152600401610cea90611903565b60405180910390fd5b610cfc85610dc2565b610d3b576040517f08c379a0000000000000000000000000000000000000000000000000000000008152600401610d329061196f565b60405180910390fd5b6000808673ffffffffffffffffffffffffffffffffffffffff168587604051610d6491906119d6565b60006040518083038185875af1925050503d8060008114610da1576040519150601f19603f3d011682016040523d82523d6000602084013e610da6565b606091505b5091509150610db6828286610de5565b92505050949350505050565b6000808273ffffffffffffffffffffffffffffffffffffffff163b119050919050565b60608315610df557829050610e45565b600083511115610e085782518084602001fd5b816040517f08c379a0000000000000000000000000000000000000000000000000000000008152600401610e3c91906119ed565b60405180910390fd5b9392505050565b6000604051905090565b600080fd5b600080fd5b600080fd5b600080fd5b6000601f19601f8301169050919050565b7f4e487b7100000000000000000000000000000000000000000000000000000000600052604160045260246000fd5b610eb382610e6a565b810181811067ffffffffffffffff82111715610ed257610ed1610e7b565b5b80604052505050565b6000610ee5610e4c565b9050610ef18282610eaa565b919050565b600067ffffffffffffffff821115610f1157610f10610e7b565b5b610f1a82610e6a565b9050602081019050919050565b82818337600083830152505050565b6000610f49610f4484610ef6565b610edb565b905082815260208101848484011115610f6557610f64610e65565b5b610f70848285610f27565b509392505050565b600082601f830112610f8d57610f8c610e60565b5b8135610f9d848260208601610f36565b91505092915050565b6000819050919050565b610fb981610fa6565b8114610fc457600080fd5b50565b600081359050610fd681610fb0565b92915050565b600073ffffffffffffffffffffffffffffffffffffffff82169050919050565b600061100782610fdc565b9050919050565b61101781610ffc565b811461102257600080fd5b50565b6000813590506110348161100e565b92915050565b60008060008060008060c0878903121561105757611056610e56565b5b600087013567ffffffffffffffff81111561107557611074610e5b565b5b61108189828a01610f78565b965050602061109289828a01610fc7565b95505060406110a389828a01611025565b94505060606110b489828a01610fc7565b93505060806110c589828a01610fc7565b92505060a06110d689828a01610fc7565b9150509295509295509295565b6000602082840312156110f9576110f8610e56565b5b600061110784828501611025565b91505092915050565b61111981610ffc565b82525050565b60006020820190506111346000830184611110565b92915050565b6000602082840312156111505761114f610e56565b5b600061115e84828501610fc7565b91505092915050565b61117081610fa6565b82525050565b600060208201905061118b6000830184611167565b92915050565b600082825260208201905092915050565b7f5265656e7472616e637947756172643a207265656e7472616e742063616c6c00600082015250565b60006111d8601f83611191565b91506111e3826111a2565b602082019050919050565b60006020820190508181036000830152611207816111cb565b9050919050565b7f72657761726420746f6b656e20616464726573732063616e6e6f742062652030600082015250565b6000611244602083611191565b915061124f8261120e565b602082019050919050565b6000602082019050818103600083015261127381611237565b9050919050565b7f6e6f2072657761726420746f2061646400000000000000000000000000000000600082015250565b60006112b0601083611191565b91506112bb8261127a565b602082019050919050565b600060208201905081810360008301526112df816112a3565b9050919050565b7f4e487b7100000000000000000000000000000000000000000000000000000000600052601160045260246000fd5b600061132082610fa6565b915061132b83610fa6565b9250828203905081811115611343576113426112e6565b5b92915050565b600081519050919050565b60005b83811015611372578082015181840152602081019050611357565b60008484015250505050565b600061138982611349565b6113938185611191565b93506113a3818560208601611354565b6113ac81610e6a565b840191505092915050565b600060e0820190506113cc600083018a611167565b81810360208301526113de818961137e565b90506113ed6040830188611167565b6113fa6060830187611110565b6114076080830186611167565b61141460a0830185611167565b61142160c0830184611167565b98975050505050505050565b7f4f776e61626c653a2063616c6c6572206973206e6f7420746865206f776e6572600082015250565b6000611463602083611191565b915061146e8261142d565b602082019050919050565b6000602082019050818103600083015261149281611456565b9050919050565b7f696e636f72726563742061646472657373000000000000000000000000000000600082015250565b60006114cf601183611191565b91506114da82611499565b602082019050919050565b600060208201905081810360008301526114fe816114c2565b9050919050565b600060408201905061151a6000830185611110565b6115276020830184611110565b9392505050565b7f4665652063616e6e6f7420626520300000000000000000000000000000000000600082015250565b6000611564600f83611191565b915061156f8261152e565b602082019050919050565b6000602082019050818103600083015261159381611557565b9050919050565b7f46656520746f6f20686967680000000000000000000000000000000000000000600082015250565b60006115d0600c83611191565b91506115db8261159a565b602082019050919050565b600060208201905081810360008301526115ff816115c3565b9050919050565b600060408201905061161b6000830185611167565b6116286020830184611167565b9392505050565b7f4f776e61626c653a206e6577206f776e657220697320746865207a65726f206160008201527f6464726573730000000000000000000000000000000000000000000000000000602082015250565b600061168b602683611191565b91506116968261162f565b604082019050919050565b600060208201905081810360008301526116ba8161167e565b9050919050565b60006116cc82610fa6565b91506116d783610fa6565b92508282026116e581610fa6565b915082820484148315176116fc576116fb6112e6565b5b5092915050565b7f4e487b7100000000000000000000000000000000000000000000000000000000600052601260045260246000fd5b600061173d82610fa6565b915061174883610fa6565b92508261175857611757611703565b5b828204905092915050565b60006060820190506117786000830186611110565b6117856020830185611110565b6117926040830184611167565b949350505050565b60008115159050919050565b6117af8161179a565b81146117ba57600080fd5b50565b6000815190506117cc816117a6565b92915050565b6000602082840312156117e8576117e7610e56565b5b60006117f6848285016117bd565b91505092915050565b7f5361666545524332303a204552433230206f7065726174696f6e20646964206e60008201527f6f74207375636365656400000000000000000000000000000000000000000000602082015250565b600061185b602a83611191565b9150611866826117ff565b604082019050919050565b6000602082019050818103600083015261188a8161184e565b9050919050565b7f416464726573733a20696e73756666696369656e742062616c616e636520666f60008201527f722063616c6c0000000000000000000000000000000000000000000000000000602082015250565b60006118ed602683611191565b91506118f882611891565b604082019050919050565b6000602082019050818103600083015261191c816118e0565b9050919050565b7f416464726573733a2063616c6c20746f206e6f6e2d636f6e7472616374000000600082015250565b6000611959601d83611191565b915061196482611923565b602082019050919050565b600060208201905081810360008301526119888161194c565b9050919050565b600081519050919050565b600081905092915050565b60006119b08261198f565b6119ba818561199a565b93506119ca818560208601611354565b80840191505092915050565b60006119e282846119a5565b915081905092915050565b60006020820190508181036000830152611a07818461137e565b90509291505056fea2646970667358221220fea364387b05b26c065b426c797401de3b6592832e4a34aa2898ef077fbebb5a64736f6c63430008120033",
  "linkReferences": {},
  "deployedLinkReferences": {}
}